:04000000020059326F
:01000B0032C2
:0100130032BA
:01001B0032B2
:0100230032AA
:01002B0032A2
:030033000201CAFD
:01003B003292
:03004300023F0079
:01004B003282
:03005300023F0069
:0400B200C200C201C5
:0300CB00020056DA
:030056000200CED7
:2000CE00120325D2E890E668E04408F090E65CE04401F0E0FF43071090E65CEFF0E0FF4331
:2000EE00072090E65CEFF0E0FF43070890E65CEFF0D2DDD2AF90E680E0FF7E0020E118900C
:20010E00E680E0FF740A4FF09005DC120DAD90E680E0FF74F75FF012044610000280031200
:20012E00091610010280F090E682E0FF74C04FF090E6817401F0AE877F004306018E870056
:20014E00000000000000E50B702890E682E0FF7E0030E60A90E682E0FF7E0020E0C990E600
:20016E0082E0FF7E0030E70A90E682E0FF7E0020E1B590E682E0FF7E0030E60A90E682E019
:20018E00FF7E0020E01790E682E0FF7E0030E78790E682E0FF7E0020E103020125900005B4
:2001AE00120DAD90E680E04401F090000F120DAD90E680E0FF74FE5FF0020125C2DC32C0A1
:2001CE00E0C082C083D2005391EF90E65D7401F0D083D082D0E032C021C0E0C0F0C082C015
:2001EE0083C007C006C005C004C003C002C001C000C0D075D000758200120C6B5391EF909A
:20020E00E65D7410F0D0D0D000D001D002D003D004D005D006D007D083D082D0F0D0E0D0F8
:20022E002132C021C0E0C0F0C082C083C007C006C005C004C003C002C001C000C0D075D0B6
:20024E0000758201120C6B5391EF90E65D7420F0D0D0D000D001D002D003D004D005D00680
:20026E00D007D083D082D0F0D0E0D02132C0E0C082C083D2015391EF90E65D7408F0D08304
:05028E00D082D0E03237
:0300B600750800CA
:200293007582002275820122758201227582012275820122AF82E508600475820022BFB0C0
:2002B300117508B090E68AE4F090E68B04F075820122BFB1077508B175820122BFB307755D
:2002D30008B375820122BFB4077508B475820122BFB5127508B590E68AE4F090E68B74046C
:2002F300F075820122BFB2127508B290E68AE4F090E68B7403F075820122BFB6117508B620
:2003130090E68AE4F090E68B04F0758201227582002275080075B2FF75800143800153809E
:20033300FB90E60B7403F00000000000000000000000000000000090E61274A0F00000003B
:200353000000000000000000000000000090E6047480F0000000000000000000000000002C
:2003730000000090E6047482F00000000000000000000000000000000090E604E4F00000BC
:20039300000000000000000000000000000090E6187401F000000000000000000000000057
:2003B3000000000090E6D27401F090E6497482F000000000000000000000000000000000D8
:2003D30090E6497482F00000000000000000000000000000000090E6497482F000000000C0
:2003F30000000000000000000000000090E6497482F0000000000000000000000000000045
:20041300000090E618E0FF7E0043071090E618EFF000000000000000000000000000000017
:20043300007510A475113C751200903C0075F00002055E74B0B5081390E6A0E0FF7E00201A
:20045300E10990E740E0F58075080074B1B5082590E6F574FFF05380FE900001120DAD43D0
:20047300800190E740742AF090E68AE4F090E68B04F075080074B3B508165380FE90E740DB
:20049300742AF090E68AE4F090E68B04F075080074B4B5081643800190E740742AF090E6FB
:2004B3008AE4F090E68B04F075080074B5B5083690E6A0E0FF7E0020E12C90E740E0FCA367
:2004D300E0FDA3E0FEA3E0FFAABB7B00EA30E7F84380028C828D838EF0EF1207737582007D
:2004F30012090975080074B2B5083890E6A0E0FF7E0020E12E90E740E070055380FD80032C
:2005130043800290E6F574FFF075100175110090E74175F00012089FAEBB7F00EE30E7F86E
:2005330075080074B6B5082290E6A0E0FF7E0020E11890E740E0FF0F90E740EFF090E68A5B
:0B055300E4F090E68B04F07508002235
:200E3200010101010101010702020202020202020101010101010101000000000000003F3B
:200E5200040401010101010722020202020202020001010101010101000000000000003FF6
:200E7200010101010101010702020202020202020101010101010101000000000000003FFB
:200E9200810303B801010107030602030202020201000101010101013600002D0000003F38
:200EB200000000000000000000000000000000000000000000000000000000000000000020
:0B0ED20000000000E0100001CE4E0008
:203E000012010002FFFFFF40C016D8270100000200010A060002FFFFFF40010009023C00E0
:203E200001010080320904000006FFFFFF000705010200020007058102000200070502020C
:203E400000020007050402000200070586020002000705880200020009023C000101008055
:203E6000320904000006FFFFFF00070501024000000705810240000007050202400000078B
:203E80000504024000000705860240000007058802400000040309040603480069000C0350
:183EA000540068006500720065000C036900460061006300650000002B
:06008800E478FFF6D8FD4C
:20055E0085821385831485F01590E601E0FC74FC5CF0E0FC43040290E601ECF090E6F57457
:20057E00FFF0AA10AB11AC128A828B838CF0120E0590E6F3F074012AF8E43BF98C078882DA
:20059E0089838FF0120E05F890E6C3F074022AFDE43BFE8C078D828E838FF0120E0590E6E5
:2005BE00C1F074032AFDE43BFE8C078D828E838FF0120E0590E6C2F074052AFDE43BFE8CE9
:2005DE00078D828E838FF0120E0590E6C0F074062AFAE43BFB8A828B838CF0120E05FA900F
:2005FE00E6F4F075AF07AD13AE148E9A85139B759DE4759E007F0090E67BE0FE90E67CF0D2
:20061E000FBF800040F190E67174FFF0F5B490E672E0FF43078090E672EFF0AEB67F0043CC
:20063E0006808EB60000000000000000000000000000000090E6C4E4F000000000000000C4
:20065E0000000000000000000090E6C5E4F090E6C6F090E6C7F090E6C8F090E6C9F090E641
:20067E00CAF090E6CBF090E6CCF090E6CDF022AD82AE83AFF0E51075F009A4FC2DF9E43EA0
:20069E00FA8F0389828A838BF0120E0590E6C6F07B0074012CF9E43BFAE92DF9EA3EF88FE0
:2006BE0002898288838AF0120E0590E6C7F074022CF9E43BFAE92DF9EA3EF88F0289828831
:2006DE00838AF0120E0590E6C8F074032CF9E43BFAE92DF9EA3EF88F02898288838AF01295
:2006FE000E0590E6C9F074042CF9E43BFAE92DF9EA3EF88F02898288838AF0120E0590E6F9
:20071E00CAF074052CF9E43BFAE92DF9EA3EF88F02898288838AF0120E0590E6CBF074062A
:20073E002CF9E43BFAE92DF9EA3EF88F02898288838AF0120E0590E6CCF074072CFCE43BF4
:20075E00FBEC2DFDEB3EFE8D828E838FF0120E0590E6CDF022AC82AD83AEF0FF8E028F030D
:20077E008A008B0190E6CEE9F00000000000000000000000000000000090E6CFEAF0000009
:20079E0000000000000000000000000000008C028D0390E6D0EBF0000000000000000000FC
:2007BE000000000000000090E6D1ECF022AE82AF8390E6D0EFF0000000000000000000004F
:2007DE0000000000000090E6D1EEF02285821285831385F014ABBB7C00EB30E7F890E6F1B4
:2007FE00E0FC7B008512828513838514F0EC120D7BA3EB120D7BE51024FFFBE51134FFFCE1
:20081E007A008A007900C3E89510E995115071A8BB7900E830E7F8EA75F002A42512F8E5C1
:20083E001335F0F9AF14AEBD7D00888289838FF0ED120D7BA3EE120D7B881589168F17880D
:20085E008289838FF0120E05FEA3120E05FF8A017D00E9B50308EDB50404ADBF8002ADBECF
:20087E008D017D00E94206ED42078515828516838517F0EE120D7BA3EF120D7B0A0208203A
:20089E002285821285831385F0147C008C027B00C3EA9510EB95115041AABB7B00EA30E781
:2008BE00F8EC75F002A42512F9E51335F0FAAB1489828A838BF0120E05F8A3120E05FF901E
:2008DE00E6F0F089828A838BF0120E05F9A3120E05FA90E6F1E9F00C80B222AF82ADBB7E0A
:1808FE0000ED30E7F84307048FBB22AF82ADBB7E00ED30E7F88FBB22AD
:1200B900750A00750B00750C58750D3E750E1C750F3E3C
:2009160090E6B9E0FF24F45003020A44EF240A83F582EF241083F583E47348644480444474
:200936009C44ACC3E51F09090A090A0A090A0909090A120AC8E5826003020A6090E6A0E0CD
:20095600FF7E0043070190E6A0EFF0020A60120B5BE5826003020A6090E6A0E0FF7E0043F4
:20097600070190E6A0EFF0020A60120BD5E5826003020A6090E6A0E0FF7E0043070190E69C
:20099600A0EFF0020A60120293E5826003020A60120C96020A6012029FAF8290E740EFF0DF
:2009B60090E68AE4F090E68B04F0020A6090E6BAE0F5821202A3E5826003020A6090E6A062
:2009D600E0FF7E0043070190E6A0EFF0020A6090E6BCE0FF7510097511007512408F8212E9
:2009F6000297E582701190E6A0E0FF7E0043070190E6A0EFF0805390E740E509F090E68A45
:200A1600E4F090E68B04F0804190E6BCE0FF90E6BAE0F5108F8212029BE582702D90E6A036
:200A3600E0FF7E0043070190E6A0EFF0801C90E6B9E0F5821202A7E582700F90E6A0E0FF4B
:200A56007E0043070190E6A0EFF090E6A0E0FF43078090E6A0EFF022AF82747F5FFE24F750
:200A76005003020AC4EE240A83F582EE240D83F583E4739B9FB4C4B8C4BCC4C00A0A0A0A20
:200A96000A0A0A0A0A90E6A0227E00EF30E7067EA27FE680047EA17FE68E828F832290E605
:200AB600A32290E6A42290E6A52290E6A6229000002290E6B8E0FFBF8002801FBF81028043
:200AD60005BF8279803490E740E4F090E741F090E68AF090E68B7402F08066E50B25E0FF29
:200AF600E50A420790E740EFF090E741E4F090E68AF090E68B7402F0804790E6BCE0F582DF
:200B1600120A6EAE82AF838E048F05EE4F7003F582228C828D83E0FC7F0030E0067E017FD7
:200B36000080047E007F0090E740EEF090E741E4F090E68AF090E68B7402F080047582002B
:200B5600227582012290E6B8E0FF6005BF0263801B90E6BAE0FFBF0105750B00805D90E66B
:200B7600BAE0FFBF060280537582002290E6BAE0703C90E6BCE0F582120A6EAE82AF83E002
:200B9600FD5305FE8E828F83EDF090E6BCE0FFFD7E0030E7054305108D0753071F90E683E7
:200BB600EFF07E0043072090E683EFF0800D7582002290E6B9E0F5820202A77582012290FF
:200BD600E6B8E0FF6008BF02028029020C5E90E6BAE0FFBF0203020C6790E6BAE0FFBF012B
:200BF60005750B01806B90E6BAE0FFBF060280617582002290E6BAE0704A90E6BCE0F5824B
:200C1600120A6EAE82AF83EE4F7003F582228E828F83E0FD7C004305018E828F83EDF09036
:200C3600E6BCE0FFFD7E00ED30E7054305108D0753071F90E683EFF07E0043072090E6837B
:200C5600EFF0800D7582002290E6B9E0F5820202A775820122AF82D20210AF02C202EF60D5
:200C76000E750C1C750D3E750E58750F3E800C750C58750D3E750E1C750F3EA20292AF22C9
:200C960090E6BBE0FFBF01028019BF02028024BF0302802CBF0603020D50BF0703020D609D
:200CB600020D6D7E007F3E90E6B3EFF090E6B47400F02290E6B3E50DF090E6B4E50CF02277
:200CD6007D947E3E7F8090E6BAE0F5107B008B020BEAB5100280428D008E018F028D828E4D
:200CF600838FF0120E0528F8E439F9880589068A0774012DF9E43EFA8F0489828A838CF0F6
:200D1600120E05F9B9030280067D007E007F00ED4E6006C3E5109B50B5ED4E600F8D038E20
:200D36000490E6B3ECF090E6B4EDF02290E6A0E0FF43070190E6A0EFF0227E127F3E90E651
:200D5600B3EFF090E6B47412F02290E6B3E50FF090E6B4E50EF02290E6A0E0FF430701901D
:050D7600E6A0EFF022F1
:2000660079ABE94400601B7A01900E32780075923CE493F2A308B800020592D9F4DAF27535
:0200860092FFE7
:1B0D7B0020F71130F6138883A88220F509F6A8837583002280FEF280F5F02277
:203F00000201CD00020E3000020E250002027B000201E50002023000020E2200020DA100DF
:203F2000020DA300020DA400020DA500020DA800020E2F00020E3100020D9600020D9800E5
:203F4000020E2700020DA100020E2100020E2300020E2400020E2600020E2800020E29003B
:203F6000020E0400020DA100020DA100020DA100020DA200020DA600020DA900020DAB0045
:203F8000020DA700020DAA00020DAC00020E0300020D9900020D9B00020D9D00020D9F0038
:183FA000020D9A00020D9C00020D9E00020DA000020D9700020E2E0075
:010D9600322A
:010D97003229
:010D98003228
:010D99003227
:010D9A003226
:20008E007800E84400600A790075923CE4F309D8FC7800E84400600C7900903C00E4F0A308
:0400AE00D8FCD9FAA7
:010D9B003225
:010D9C003224
:010D9D003223
:010D9E003222
:010D9F003221
:010DA0003220
:010DA100321F
:010DA200321E
:010DA300321D
:010DA400321C
:010DA500321B
:010DA600321A
:010DA7003219
:010DA8003218
:010DA9003217
:010DAA003216
:010DAB003215
:010DAC003214
:200DAD00AE82AF8390E600E05418C423541FFD70057CB1FD801C90E600E05418C423541F54
:200DCD00FBBB01067A617B0180047AC27B028A048B058C108D11151074FFB510021511E5F3
:160DED0010451170F1EE24FFFAEF34FFFB8A068B07EA4B70DD223B
:010E030032BC
:010E040032BB
:0D005900758121120E2AE582600302005617
:1C0E050020F71430F6148883A88220F507E6A88375830022E280F7E49322E022FC
:010E2100329E
:010E2200329D
:010E2300329C
:010E2400329B
:010E2500329A
:010E26003299
:010E27003298
:010E28003297
:010E29003296
:040E2A0075820022AB
:010E2E003291
:010E2F003290
:010E3000328F
:010E3100328E
:00000001FF
